:020000040800F2
:1000000000040020D5000008530100085101000839
:1000100000000000000000000000000000000000E0
:100020000000000000000000000000005701000870
:10003000000000000000000055010008D901000880
:100040000501000805010008050100080501000878
:100050000501000805010008050100080501000868
:100060000501000805010008050100080501000858
:100070000501000805010008050100080501000848
:100080000501000805010008050100080501000838
:100090000501000805010008050100080501000828
:1000A0000501000805010008050100080501000818
:1000B0000501000805010008050100080501000808
:1000C0000348854600F032F8004800475B0200080C
:1000D000000400200C4880F308880C480168090ED1
:1000E0000B4A914205D10B480B4901600B480C4962
:1000F00001600C4880470C480047FEE7FEE7FEE73A
:10010000FEE7FEE7FEE70000000400200400000018
:100110001F00000018100240010000000000014014
:1001200000000000DD010008C1000008064C0125A8
:10013000064E05E02046E36807C82B439847103475
:10014000B442F7D3FFF7C0FF5C0200086C0200085E
:10015000FEE770477047704710B51D4900200A68D8
:1001600001231B041A430A605B00052424030A6868
:10017000401C1A40002A01D1A042F8D1086880032F
:1001800025D5144A112010604868486048684860C6
:1001900048687F22D20390434860486811221204C5
:1001A000104348600868012212061043086008687E
:1001B0008001FCD5486880088000486048680222B9
:1001C0001043486048680007800F0228FAD110BD2C
:1001D00000100240002002407047000010B5144893
:1001E00001680122114301604168124A11404160D7
:1001F0000168114A11400160016801229204914393
:10020000016041683F22120491434160C16A0909BB
:100210000901C162016BFF22543291430163416BBA
:1002200049084900416300218160FFF795FF10BD37
:10023000001002400CB8FF08FFFFF6FE02E008C8FD
:10024000121F08C1002AFAD170477047002001E050
:1002500001C1121F002AFBD17047FEE76C020008A3
:0C02600000000020000400004C02000818
:04000005080000C12E
:00000001FF
